{
  "address": "0x98dBAC8d2a6421220630d06F356D449A56D7F02d",
  "abi": [
    {
      "inputs": [
        {
          "internalType": "address",
          "name": "arbogerliMailBoxAddy",
          "type": "address"
        },
        {
          "internalType": "address",
          "name": "argbGoerliQueryAddy",
          "type": "address"
        },
        {
          "internalType": "address",
          "name": "arbGasAddy",
          "type": "address"
        }
      ],
      "stateMutability": "nonpayable",
      "type": "constructor"
    },
    {
      "anonymous": false,
      "inputs": [
        {
          "indexed": true,
          "internalType": "address",
          "name": "user",
          "type": "address"
        }
      ],
      "name": "captchaNeededForUser",
      "type": "event"
    },
    {
      "inputs": [],
      "name": "arbGoerliDomainID",
      "outputs": [
        {
          "internalType": "uint32",
          "name": "",
          "type": "uint32"
        }
      ],
      "stateMutability": "view",
      "type": "function"
    },
    {
      "inputs": [],
      "name": "click",
      "outputs": [],
      "stateMutability": "nonpayable",
      "type": "function"
    },
    {
      "inputs": [
        {
          "internalType": "uint256",
          "name": "browserID",
          "type": "uint256"
        },
        {
          "internalType": "address",
          "name": "userAddress",
          "type": "address"
        }
      ],
      "name": "completeSession",
      "outputs": [],
      "stateMutability": "nonpayable",
      "type": "function"
    },
    {
      "inputs": [],
      "name": "createCookie",
      "outputs": [],
      "stateMutability": "nonpayable",
      "type": "function"
    },
    {
      "inputs": [
        {
          "internalType": "uint256",
          "name": "browserID",
          "type": "uint256"
        },
        {
          "internalType": "address",
          "name": "userAddy",
          "type": "address"
        }
      ],
      "name": "createHash",
      "outputs": [
        {
          "internalType": "bytes32",
          "name": "newHash",
          "type": "bytes32"
        }
      ],
      "stateMutability": "pure",
      "type": "function"
    },
    {
      "inputs": [],
      "name": "endSession",
      "outputs": [],
      "stateMutability": "nonpayable",
      "type": "function"
    },
    {
      "inputs": [
        {
          "internalType": "uint32",
          "name": "_destinationDomain",
          "type": "uint32"
        },
        {
          "internalType": "uint256",
          "name": "_gasAmount",
          "type": "uint256"
        }
      ],
      "name": "getGasQuote",
      "outputs": [
        {
          "internalType": "uint256",
          "name": "quotedPayment",
          "type": "uint256"
        }
      ],
      "stateMutability": "view",
      "type": "function"
    },
    {
      "inputs": [
        {
          "internalType": "address",
          "name": "user",
          "type": "address"
        }
      ],
      "name": "getSessionUserInterest",
      "outputs": [
        {
          "internalType": "uint256",
          "name": "interestEarned",
          "type": "uint256"
        }
      ],
      "stateMutability": "view",
      "type": "function"
    },
    {
      "inputs": [
        {
          "internalType": "address",
          "name": "user",
          "type": "address"
        }
      ],
      "name": "getUserCookieBalance",
      "outputs": [
        {
          "internalType": "uint256",
          "name": "cookieBalance",
          "type": "uint256"
        }
      ],
      "stateMutability": "view",
      "type": "function"
    },
    {
      "inputs": [
        {
          "internalType": "address",
          "name": "user",
          "type": "address"
        }
      ],
      "name": "getUserInterest",
      "outputs": [
        {
          "internalType": "uint256",
          "name": "interestEarned",
          "type": "uint256"
        }
      ],
      "stateMutability": "view",
      "type": "function"
    },
    {
      "inputs": [
        {
          "internalType": "address",
          "name": "user",
          "type": "address"
        }
      ],
      "name": "giveUserCaptcha",
      "outputs": [],
      "stateMutability": "nonpayable",
      "type": "function"
    },
    {
      "inputs": [
        {
          "internalType": "uint256",
          "name": "_result",
          "type": "uint256"
        }
      ],
      "name": "handleQueryUint256Result",
      "outputs": [],
      "stateMutability": "nonpayable",
      "type": "function"
    },
    {
      "inputs": [
        {
          "internalType": "uint256",
          "name": "",
          "type": "uint256"
        }
      ],
      "name": "idToUpgrade",
      "outputs": [
        {
          "internalType": "uint256",
          "name": "cost",
          "type": "uint256"
        },
        {
          "internalType": "uint256",
          "name": "cookieRateBooster",
          "type": "uint256"
        },
        {
          "internalType": "uint256",
          "name": "clickModiferBooster",
          "type": "uint256"
        }
      ],
      "stateMutability": "view",
      "type": "function"
    },
    {
      "inputs": [
        {
          "internalType": "address",
          "name": "",
          "type": "address"
        },
        {
          "internalType": "uint256",
          "name": "",
          "type": "uint256"
        }
      ],
      "name": "idUserToNum",
      "outputs": [
        {
          "internalType": "uint256",
          "name": "",
          "type": "uint256"
        }
      ],
      "stateMutability": "view",
      "type": "function"
    },
    {
      "inputs": [],
      "name": "interchainGasPaymaster",
      "outputs": [
        {
          "internalType": "contract IInterchainGasPaymaster",
          "name": "",
          "type": "address"
        }
      ],
      "stateMutability": "view",
      "type": "function"
    },
    {
      "inputs": [
        {
          "internalType": "bytes",
          "name": "proof",
          "type": "bytes"
        }
      ],
      "name": "isCaptchaValid",
      "outputs": [
        {
          "internalType": "bool",
          "name": "",
          "type": "bool"
        }
      ],
      "stateMutability": "view",
      "type": "function"
    },
    {
      "inputs": [],
      "name": "lastUint256Result",
      "outputs": [
        {
          "internalType": "uint256",
          "name": "",
          "type": "uint256"
        }
      ],
      "stateMutability": "view",
      "type": "function"
    },
    {
      "inputs": [
        {
          "internalType": "address",
          "name": "",
          "type": "address"
        }
      ],
      "name": "mostRecentUserSession",
      "outputs": [
        {
          "internalType": "uint256",
          "name": "expiraryDate",
          "type": "uint256"
        },
        {
          "internalType": "bool",
          "name": "sessionActive",
          "type": "bool"
        },
        {
          "internalType": "bytes32",
          "name": "sessionHash",
          "type": "bytes32"
        },
        {
          "components": [
            {
              "internalType": "uint256",
              "name": "totalClicks",
              "type": "uint256"
            },
            {
              "internalType": "uint256",
              "name": "totalSpent",
              "type": "uint256"
            },
            {
              "internalType": "uint256",
              "name": "cookiePerSecond",
              "type": "uint256"
            },
            {
              "internalType": "uint256",
              "name": "interestLastComputed",
              "type": "uint256"
            },
            {
              "internalType": "uint256",
              "name": "clickModifier",
              "type": "uint256"
            }
          ],
          "internalType": "struct CookieClicker.cookieGame",
          "name": "sessionGame",
          "type": "tuple"
        },
        {
          "internalType": "uint256",
          "name": "userInterest",
          "type": "uint256"
        }
      ],
      "stateMutability": "view",
      "type": "function"
    },
    {
      "inputs": [
        {
          "internalType": "uint256",
          "name": "upgradeID",
          "type": "uint256"
        }
      ],
      "name": "purchaseUpgrade",
      "outputs": [],
      "stateMutability": "nonpayable",
      "type": "function"
    },
    {
      "inputs": [
        {
          "internalType": "address",
          "name": "user",
          "type": "address"
        },
        {
          "internalType": "uint256",
          "name": "upgradeID",
          "type": "uint256"
        }
      ],
      "name": "purchaseUpgradeForUser",
      "outputs": [],
      "stateMutability": "nonpayable",
      "type": "function"
    },
    {
      "inputs": [],
      "name": "queryRouter",
      "outputs": [
        {
          "internalType": "contract IInterchainQueryRouter",
          "name": "",
          "type": "address"
        }
      ],
      "stateMutability": "view",
      "type": "function"
    },
    {
      "inputs": [
        {
          "internalType": "address",
          "name": "user",
          "type": "address"
        }
      ],
      "name": "simulateClick",
      "outputs": [
        {
          "internalType": "uint256",
          "name": "clickAmount",
          "type": "uint256"
        }
      ],
      "stateMutability": "view",
      "type": "function"
    },
    {
      "inputs": [
        {
          "internalType": "bytes32",
          "name": "createdHash",
          "type": "bytes32"
        },
        {
          "internalType": "uint256",
          "name": "sessionLength",
          "type": "uint256"
        }
      ],
      "name": "startSession",
      "outputs": [],
      "stateMutability": "nonpayable",
      "type": "function"
    },
    {
      "inputs": [
        {
          "internalType": "uint32",
          "name": "_destinationDomain",
          "type": "uint32"
        },
        {
          "internalType": "address",
          "name": "captchaContract",
          "type": "address"
        },
        {
          "internalType": "bytes",
          "name": "proof",
          "type": "bytes"
        }
      ],
      "name": "submitCaptcha",
      "outputs": [],
      "stateMutability": "payable",
      "type": "function"
    },
    {
      "inputs": [],
      "name": "timeSpent",
      "outputs": [
        {
          "internalType": "uint256",
          "name": "",
          "type": "uint256"
        }
      ],
      "stateMutability": "view",
      "type": "function"
    },
    {
      "inputs": [
        {
          "internalType": "address",
          "name": "",
          "type": "address"
        }
      ],
      "name": "userCookie",
      "outputs": [
        {
          "internalType": "uint256",
          "name": "totalClicks",
          "type": "uint256"
        },
        {
          "internalType": "uint256",
          "name": "totalSpent",
          "type": "uint256"
        },
        {
          "internalType": "uint256",
          "name": "cookiePerSecond",
          "type": "uint256"
        },
        {
          "internalType": "uint256",
          "name": "interestLastComputed",
          "type": "uint256"
        },
        {
          "internalType": "uint256",
          "name": "clickModifier",
          "type": "uint256"
        }
      ],
      "stateMutability": "view",
      "type": "function"
    },
    {
      "inputs": [
        {
          "internalType": "uint256",
          "name": "browserID",
          "type": "uint256"
        },
        {
          "internalType": "address",
          "name": "userAddy",
          "type": "address"
        }
      ],
      "name": "verifySession",
      "outputs": [
        {
          "internalType": "bool",
          "name": "valid",
          "type": "bool"
        }
      ],
      "stateMutability": "view",
      "type": "function"
    }
  ],
  "transactionHash": "0x535ffecd3c2221755921b85164cd0c94c028b0be7f42ebe67c857c75523b004d",
  "args": [
    "0xCb0ba89F564e31180A101Df54b7971206e03ee9b",
    "0x4266D8Dd66D8Eb3934c8942968d1e54214D072d3",
    "0xF90cB82a76492614D07B82a7658917f3aC811Ac1"
  ],
  "numDeployments": 2,
  "solcInputHash": "8eb3e6e4c95302bd188bef9601ac1ffa",
  "bytecode": "0x6101006040523480156200001257600080fd5b506040516200198f3803806200198f833981016040819052620000359162000191565b336080526040805160608082018352600a808352600160208085018281526000868801818152848252600280855297517fe90b7bceb6e7df5418fb78d8ee546e97c83a08bbccc01a0644d599ccd2a7c2e05591517fe90b7bceb6e7df5418fb78d8ee546e97c83a08bbccc01a0644d599ccd2a7c2e15590517fe90b7bceb6e7df5418fb78d8ee546e97c83a08bbccc01a0644d599ccd2a7c2e2558651948501875292845283810183815295840191825291849052929052517f679795a0195a1b76cdebb7c51d74e058aee92919b8c3389af86ef24535e8a28c5590517f679795a0195a1b76cdebb7c51d74e058aee92919b8c3389af86ef24535e8a28d55517f679795a0195a1b76cdebb7c51d74e058aee92919b8c3389af86ef24535e8a28e556001600160a01b0391821660c05291811660a0521660e052620001db565b80516001600160a01b03811681146200018c57600080fd5b919050565b600080600060608486031215620001a757600080fd5b620001b28462000174565b9250620001c26020850162000174565b9150620001d26040850162000174565b90509250925092565b60805160a05160c05160e0516117536200023c60003960008181610244015281816106fb01528181610d3d01526112cb01526000818161069b0152610bfd0152600050506000818161084c0152818161093d015261104301526117536000f3fe6080604052600436106101ac5760003560e01c806394d1441c116100ec578063e237a3fc1161008a578063e8a8e23111610064578063e8a8e23114610629578063e927740b14610649578063e97ff4e014610669578063ebda2bd81461068957600080fd5b8063e237a3fc14610586578063e36840dd146105b3578063e55a9ddf146105d357600080fd5b8063d1159051116100c6578063d1159051146104cc578063d85a931a1461053e578063e0fc587014610551578063e1b1a2141461057157600080fd5b806394d1441c1461046c578063ad8150781461048c578063bf8853c6146104ac57600080fd5b806357a061c511610159578063769edf6a11610133578063769edf6a146103f75780637d55923d146104175780637d9b92de1461042c5780638fa5cbc31461044c57600080fd5b806357a061c5146102cc5780635fdba839146102fd5780636e6114001461031357600080fd5b806339bb4ad91161018a57806339bb4ad9146102325780633fed0a651461027e5780635520f36f146102aa57600080fd5b806312a04966146101b157806315381ed8146101fc57806334ef642c1461021c575b600080fd5b3480156101bd57600080fd5b506101e96101cc366004611352565b600360209081526000928352604080842090915290825290205481565b6040519081526020015b60405180910390f35b34801561020857600080fd5b506101e9610217366004611390565b6106bd565b34801561022857600080fd5b506101e960065481565b34801561023e57600080fd5b506102667f000000000000000000000000000000000000000000000000000000000000000081565b6040516001600160a01b0390911681526020016101f3565b34801561028a57600080fd5b5061029562066eed81565b60405163ffffffff90911681526020016101f3565b3480156102b657600080fd5b506102ca6102c53660046113ac565b600655565b005b3480156102d857600080fd5b506102ed6102e7366004611481565b50600090565b60405190151581526020016101f3565b34801561030957600080fd5b506101e960055481565b34801561031f57600080fd5b5061039a61032e3660046114b6565b6001602081815260009283526040928390208054928101546002820154855160a081018752600384015481526004840154948101949094526005830154958401959095526006820154606084015260078201546080840152600890910154929360ff9091169290919085565b60408051958652931515602080870191909152858501939093528151606080870191909152928201516080808701919091529382015160a08601529181015160c0850152919091015160e0830152610100820152610120016101f3565b34801561040357600080fd5b506101e96104123660046114d1565b610775565b34801561042357600080fd5b506102ca6107c3565b34801561043857600080fd5b506102ca6104473660046114b6565b610841565b34801561045857600080fd5b506102ca6104673660046114fd565b610892565b34801561047857600080fd5b506102ca610487366004611352565b610932565b34801561049857600080fd5b506101e96104a73660046114b6565b610b24565b3480156104b857600080fd5b506101e96104c73660046114b6565b610b75565b3480156104d857600080fd5b506105166104e73660046114b6565b600060208190529081526040902080546001820154600283015460038401546004909401549293919290919085565b604080519586526020860194909452928401919091526060830152608082015260a0016101f3565b6102ca61054c36600461151f565b610bf9565b34801561055d57600080fd5b506102ca61056c3660046113ac565b610dbc565b34801561057d57600080fd5b506102ca610eeb565b34801561059257600080fd5b506102ca33600090815260016020819052604090912001805460ff19169055565b3480156105bf57600080fd5b506101e96105ce3660046114b6565b610f7e565b3480156105df57600080fd5b5061060e6105ee3660046113ac565b600260208190526000918252604090912080546001820154919092015483565b604080519384526020840192909252908201526060016101f3565b34801561063557600080fd5b506101e96106443660046114b6565b611001565b34801561065557600080fd5b506102ca6106643660046114d1565b611038565b34801561067557600080fd5b506102ed6106843660046114d1565b61120c565b34801561069557600080fd5b506102667f000000000000000000000000000000000000000000000000000000000000000081565b6040517fa692979300000000000000000000000000000000000000000000000000000000815263ffffffff83166004820152602481018290526000907f00000000000000000000000000000000000000000000000000000000000000006001600160a01b03169063a692979390604401602060405180830381865afa15801561074a573d6000803e3d6000fd5b505050506040513d601f19601f8201168201806040525081019061076e919061157d565b9392505050565b600082826040516020016107a592919091825260601b6bffffffffffffffffffffffff1916602082015260340190565b60405160208183030381529060405280519060200120905092915050565b3360008181526020819052604081206003015490036107fc576001600160a01b0381166000908152602081905260409020426003909101555b3360009081526020819052604090206004015461081a9060016115c5565b33600090815260208190526040812080549091906108399084906115c5565b909155505050565b336001600160a01b037f0000000000000000000000000000000000000000000000000000000000000000161461087657600080fd5b6001600160a01b03166000908152600460205260409020429055565b3360008181526020819052604081206003015490036108cb576001600160a01b0381166000908152602081905260409020426003909101555b3360009081526001602052604090206002018390556108ea82426115c5565b3360009081526001602081815260408084209485558382529092206002810154600585015560040154918190526007830191909155908101805460ff19169091179055505050565b336001600160a01b037f0000000000000000000000000000000000000000000000000000000000000000161461096757600080fd5b336000908152600360209081526040808320848452909152812080549161098d836115d8565b9091555050600081815260026020526040902054610a0b576040517f08c379a000000000000000000000000000000000000000000000000000000000815260206004820152600b60248201527f4e6f74205265616c204944000000000000000000000000000000000000000000604482015260640160405180910390fd5b336000908152600360209081526040808320848452825280832054600290925290912054610a399190611610565b6001600160a01b03831660009081526001602052604081206004018054909190610a649084906115c5565b90915550610a73905082610b24565b6001600160a01b03831660008181526001602081815260408084206008810196909655868452600282528320820154938352526005909201805491929091610abc9084906115c5565b90915550506000818152600260208181526040808420909201546001600160a01b03861684526001909152908220600701805491929091610afe9084906115c5565b9091555050506001600160a01b0316600090815260208190526040902042600390910155565b6001600160a01b0381166000908152602081905260408120600301548190610b4c9042611627565b6001600160a01b03841660009081526001602052604090206005015490915061076e9082611610565b6001600160a01b0381166000908152602081905260408120600301548190610b9d9042611627565b6001600160a01b038416600090815260208190526040902060020154909150610bc69082611610565b6001600160a01b0384166000908152600160208190526040909120015490925060ff1615610bf357600091505b50919050565b60007f00000000000000000000000000000000000000000000000000000000000000006001600160a01b0316632222b45285856357a061c560e01b86604051602001610c4692919061165e565b60408051808303601f19018152908290527f5520f36f000000000000000000000000000000000000000000000000000000006020830152906024016040516020818303038152906040526040518563ffffffff1660e01b8152600401610caf94939291906116d2565b6020604051808303816000875af1158015610cce573d6000803e3d6000fd5b505050506040513d601f19601f82011682018060405250810190610cf2919061157d565b6040517fa692979300000000000000000000000000000000000000000000000000000000815263ffffffff86166004820152620186a060248201529091506000906001600160a01b037f0000000000000000000000000000000000000000000000000000000000000000169063a692979390604401602060405180830381865afa158015610d84573d6000803e3d6000fd5b505050506040513d601f19601f82011682018060405250810190610da8919061157d565b9050610db5828683611283565b5050505050565b3360009081526003602090815260408083208484529091528120805491610de2836115d8565b91905055506000610df233610f7e565b33600090815260208181526040808320426003909101558583526002909152902054909150811015610e2357600080fd5b336000908152600360209081526040808320858452825280832054600290925290912054610e519190611610565b3360009081526020819052604081206001018054909190610e739084906115c5565b9091555050600082815260026020818152604080842060010154338552918490528320909101805491929091610eaa9084906115c5565b909155505060008281526002602081815260408084209092015433845290839052908220600401805491929091610ee29084906115c5565b90915550505050565b336000818152602081905260408120600301549003610f24576001600160a01b0381166000908152602081905260409020426003909101555b506040805160a0810182526000808252602080830182815283850183815242606086019081526080860185815233865293859052959093209351845551600184015590516002830155915160038201559051600490910155565b6001600160a01b038116600090815260208181526040808320815160a081018352815481526001820154938101939093526002810154918301919091526003810154606083015260040154608082015281610fd884610b75565b90508082602001518360000151610fef9190611627565b610ff991906115c5565b949350505050565b6001600160a01b0381166000908152600160208190526040822060070154611028916115c5565b61103290826115c5565b92915050565b336001600160a01b037f0000000000000000000000000000000000000000000000000000000000000000161461106d57600080fd5b6001600160a01b038116600090815260016020526040902054819042111561109457600080fd5b6001600160a01b0381166000908152600160208190526040909120015460ff166110bd57600080fd5b6110c7838361120c565b6110d057600080fd5b6001600160a01b0382166000908152600160209081526040808320600301549183905282208054919290916111069084906115c5565b90915550506001600160a01b03821660009081526001602052604090206004810154600890910154818161113986610f7e565b61114391906115c5565b101561114e57600080fd5b6001600160a01b038416600090815260208190526040812060010180548492906111799084906115c5565b9091555050506001600160a01b039092166000908152600160208181526040808420600781018054868552928620600481810194909455600583018054600280840191909155848801805460ff1990811682554260039586015598909752888555865490971690955594820186905593810185905590810184905590839055600681018390559082905560080155505050565b6000828260405160200161123c92919091825260601b6bffffffffffffffffffffffff1916602082015260340190565b60408051601f1981840301815291815281516020928301206001600160a01b038516600090815260019093529120600201541461127a57600061076e565b60019392505050565b6040517f11bf2c180000000000000000000000000000000000000000000000000000000081526004810184905263ffffffff83166024820152604481018290523360648201527f00000000000000000000000000000000000000000000000000000000000000006001600160a01b0316906311bf2c189034906084016000604051808303818588803b15801561131857600080fd5b505af115801561132c573d6000803e3d6000fd5b5050505050505050565b80356001600160a01b038116811461134d57600080fd5b919050565b6000806040838503121561136557600080fd5b61136e83611336565b946020939093013593505050565b803563ffffffff8116811461134d57600080fd5b600080604083850312156113a357600080fd5b61136e8361137c565b6000602082840312156113be57600080fd5b5035919050565b7f4e487b7100000000000000000000000000000000000000000000000000000000600052604160045260246000fd5b600082601f83011261140557600080fd5b813567ffffffffffffffff80821115611420576114206113c5565b604051601f8301601f19908116603f01168101908282118183101715611448576114486113c5565b8160405283815286602085880101111561146157600080fd5b836020870160208301376000602085830101528094505050505092915050565b60006020828403121561149357600080fd5b813567ffffffffffffffff8111156114aa57600080fd5b610ff9848285016113f4565b6000602082840312156114c857600080fd5b61076e82611336565b600080604083850312156114e457600080fd5b823591506114f460208401611336565b90509250929050565b6000806040838503121561151057600080fd5b50508035926020909101359150565b60008060006060848603121561153457600080fd5b61153d8461137c565b925061154b60208501611336565b9150604084013567ffffffffffffffff81111561156757600080fd5b611573868287016113f4565b9150509250925092565b60006020828403121561158f57600080fd5b5051919050565b7f4e487b7100000000000000000000000000000000000000000000000000000000600052601160045260246000fd5b8082018082111561103257611032611596565b60007fffffffffffffffffffffffffffffffffffffffffffffffffffffffffffffffff820361160957611609611596565b5060010190565b808202811582820484141761103257611032611596565b8181038181111561103257611032611596565b60005b8381101561165557818101518382015260200161163d565b50506000910152565b7fffffffff00000000000000000000000000000000000000000000000000000000831681526000825161169881600485016020870161163a565b919091016004019392505050565b600081518084526116be81602086016020860161163a565b601f01601f19169290920160200192915050565b63ffffffff851681526001600160a01b038416602082015260806040820152600061170060808301856116a6565b828103606084015261171281856116a6565b97965050505050505056fea26469706673582212202e4fda519e35fae628a725848e9e985b43c1848f93c87e91ae28cb5ef1cc044064736f6c63430008120033",
  "devdoc": {
    "kind": "dev",
    "methods": {},
    "version": 1
  },
  "userdoc": {
    "kind": "user",
    "methods": {},
    "version": 1
  },
  "storageLayout": {
    "storage": [
      {
        "astId": 145,
        "contract": "contracts/CookieClicker.sol:CookieClicker",
        "label": "userCookie",
        "offset": 0,
        "slot": "0",
        "type": "t_mapping(t_address,t_struct(cookieGame)172_storage)"
      },
      {
        "astId": 150,
        "contract": "contracts/CookieClicker.sol:CookieClicker",
        "label": "mostRecentUserSession",
        "offset": 0,
        "slot": "1",
        "type": "t_mapping(t_address,t_struct(GameSession)184_storage)"
      },
      {
        "astId": 155,
        "contract": "contracts/CookieClicker.sol:CookieClicker",
        "label": "idToUpgrade",
        "offset": 0,
        "slot": "2",
        "type": "t_mapping(t_uint256,t_struct(Upgrade)191_storage)"
      },
      {
        "astId": 161,
        "contract": "contracts/CookieClicker.sol:CookieClicker",
        "label": "idUserToNum",
        "offset": 0,
        "slot": "3",
        "type": "t_mapping(t_address,t_mapping(t_uint256,t_uint256))"
      },
      {
        "astId": 257,
        "contract": "contracts/CookieClicker.sol:CookieClicker",
        "label": "userCaptchaStart",
        "offset": 0,
        "slot": "4",
        "type": "t_mapping(t_address,t_uint256)"
      },
      {
        "astId": 259,
        "contract": "contracts/CookieClicker.sol:CookieClicker",
        "label": "timeSpent",
        "offset": 0,
        "slot": "5",
        "type": "t_uint256"
      },
      {
        "astId": 348,
        "contract": "contracts/CookieClicker.sol:CookieClicker",
        "label": "lastUint256Result",
        "offset": 0,
        "slot": "6",
        "type": "t_uint256"
      }
    ],
    "types": {
      "t_address": {
        "encoding": "inplace",
        "label": "address",
        "numberOfBytes": "20"
      },
      "t_bool": {
        "encoding": "inplace",
        "label": "bool",
        "numberOfBytes": "1"
      },
      "t_bytes32": {
        "encoding": "inplace",
        "label": "bytes32",
        "numberOfBytes": "32"
      },
      "t_mapping(t_address,t_mapping(t_uint256,t_uint256))": {
        "encoding": "mapping",
        "key": "t_address",
        "label": "mapping(address => mapping(uint256 => uint256))",
        "numberOfBytes": "32",
        "value": "t_mapping(t_uint256,t_uint256)"
      },
      "t_mapping(t_address,t_struct(GameSession)184_storage)": {
        "encoding": "mapping",
        "key": "t_address",
        "label": "mapping(address => struct CookieClicker.GameSession)",
        "numberOfBytes": "32",
        "value": "t_struct(GameSession)184_storage"
      },
      "t_mapping(t_address,t_struct(cookieGame)172_storage)": {
        "encoding": "mapping",
        "key": "t_address",
        "label": "mapping(address => struct CookieClicker.cookieGame)",
        "numberOfBytes": "32",
        "value": "t_struct(cookieGame)172_storage"
      },
      "t_mapping(t_address,t_uint256)": {
        "encoding": "mapping",
        "key": "t_address",
        "label": "mapping(address => uint256)",
        "numberOfBytes": "32",
        "value": "t_uint256"
      },
      "t_mapping(t_uint256,t_struct(Upgrade)191_storage)": {
        "encoding": "mapping",
        "key": "t_uint256",
        "label": "mapping(uint256 => struct CookieClicker.Upgrade)",
        "numberOfBytes": "32",
        "value": "t_struct(Upgrade)191_storage"
      },
      "t_mapping(t_uint256,t_uint256)": {
        "encoding": "mapping",
        "key": "t_uint256",
        "label": "mapping(uint256 => uint256)",
        "numberOfBytes": "32",
        "value": "t_uint256"
      },
      "t_struct(GameSession)184_storage": {
        "encoding": "inplace",
        "label": "struct CookieClicker.GameSession",
        "members": [
          {
            "astId": 174,
            "contract": "contracts/CookieClicker.sol:CookieClicker",
            "label": "expiraryDate",
            "offset": 0,
            "slot": "0",
            "type": "t_uint256"
          },
          {
            "astId": 176,
            "contract": "contracts/CookieClicker.sol:CookieClicker",
            "label": "sessionActive",
            "offset": 0,
            "slot": "1",
            "type": "t_bool"
          },
          {
            "astId": 178,
            "contract": "contracts/CookieClicker.sol:CookieClicker",
            "label": "sessionHash",
            "offset": 0,
            "slot": "2",
            "type": "t_bytes32"
          },
          {
            "astId": 181,
            "contract": "contracts/CookieClicker.sol:CookieClicker",
            "label": "sessionGame",
            "offset": 0,
            "slot": "3",
            "type": "t_struct(cookieGame)172_storage"
          },
          {
            "astId": 183,
            "contract": "contracts/CookieClicker.sol:CookieClicker",
            "label": "userInterest",
            "offset": 0,
            "slot": "8",
            "type": "t_uint256"
          }
        ],
        "numberOfBytes": "288"
      },
      "t_struct(Upgrade)191_storage": {
        "encoding": "inplace",
        "label": "struct CookieClicker.Upgrade",
        "members": [
          {
            "astId": 186,
            "contract": "contracts/CookieClicker.sol:CookieClicker",
            "label": "cost",
            "offset": 0,
            "slot": "0",
            "type": "t_uint256"
          },
          {
            "astId": 188,
            "contract": "contracts/CookieClicker.sol:CookieClicker",
            "label": "cookieRateBooster",
            "offset": 0,
            "slot": "1",
            "type": "t_uint256"
          },
          {
            "astId": 190,
            "contract": "contracts/CookieClicker.sol:CookieClicker",
            "label": "clickModiferBooster",
            "offset": 0,
            "slot": "2",
            "type": "t_uint256"
          }
        ],
        "numberOfBytes": "96"
      },
      "t_struct(cookieGame)172_storage": {
        "encoding": "inplace",
        "label": "struct CookieClicker.cookieGame",
        "members": [
          {
            "astId": 163,
            "contract": "contracts/CookieClicker.sol:CookieClicker",
            "label": "totalClicks",
            "offset": 0,
            "slot": "0",
            "type": "t_uint256"
          },
          {
            "astId": 165,
            "contract": "contracts/CookieClicker.sol:CookieClicker",
            "label": "totalSpent",
            "offset": 0,
            "slot": "1",
            "type": "t_uint256"
          },
          {
            "astId": 167,
            "contract": "contracts/CookieClicker.sol:CookieClicker",
            "label": "cookiePerSecond",
            "offset": 0,
            "slot": "2",
            "type": "t_uint256"
          },
          {
            "astId": 169,
            "contract": "contracts/CookieClicker.sol:CookieClicker",
            "label": "interestLastComputed",
            "offset": 0,
            "slot": "3",
            "type": "t_uint256"
          },
          {
            "astId": 171,
            "contract": "contracts/CookieClicker.sol:CookieClicker",
            "label": "clickModifier",
            "offset": 0,
            "slot": "4",
            "type": "t_uint256"
          }
        ],
        "numberOfBytes": "160"
      },
      "t_uint256": {
        "encoding": "inplace",
        "label": "uint256",
        "numberOfBytes": "32"
      }
    }
  }
}