{
  "address": "0x4f543bcd78b481Ae004De7fA02034950E80F2747",
  "abi": [
    {
      "inputs": [
        {
          "internalType": "address",
          "name": "arbogerliMailBoxAddy",
          "type": "address"
        },
        {
          "internalType": "address",
          "name": "argbGoerliQueryAddy",
          "type": "address"
        },
        {
          "internalType": "address",
          "name": "arbGasAddy",
          "type": "address"
        }
      ],
      "stateMutability": "nonpayable",
      "type": "constructor"
    },
    {
      "anonymous": false,
      "inputs": [
        {
          "indexed": true,
          "internalType": "address",
          "name": "user",
          "type": "address"
        }
      ],
      "name": "captchaNeededForUser",
      "type": "event"
    },
    {
      "anonymous": false,
      "inputs": [
        {
          "indexed": false,
          "internalType": "address",
          "name": "user",
          "type": "address"
        },
        {
          "indexed": false,
          "internalType": "bool",
          "name": "correct",
          "type": "bool"
        }
      ],
      "name": "userDidCaptcha",
      "type": "event"
    },
    {
      "inputs": [],
      "name": "arbGoerliDomainID",
      "outputs": [
        {
          "internalType": "uint32",
          "name": "",
          "type": "uint32"
        }
      ],
      "stateMutability": "view",
      "type": "function"
    },
    {
      "inputs": [],
      "name": "click",
      "outputs": [],
      "stateMutability": "nonpayable",
      "type": "function"
    },
    {
      "inputs": [
        {
          "internalType": "uint256",
          "name": "browserID",
          "type": "uint256"
        },
        {
          "internalType": "address",
          "name": "userAddress",
          "type": "address"
        }
      ],
      "name": "completeSession",
      "outputs": [],
      "stateMutability": "nonpayable",
      "type": "function"
    },
    {
      "inputs": [],
      "name": "createCookie",
      "outputs": [],
      "stateMutability": "nonpayable",
      "type": "function"
    },
    {
      "inputs": [
        {
          "internalType": "uint256",
          "name": "browserID",
          "type": "uint256"
        },
        {
          "internalType": "address",
          "name": "userAddy",
          "type": "address"
        }
      ],
      "name": "createHash",
      "outputs": [
        {
          "internalType": "bytes32",
          "name": "newHash",
          "type": "bytes32"
        }
      ],
      "stateMutability": "pure",
      "type": "function"
    },
    {
      "inputs": [],
      "name": "endSession",
      "outputs": [],
      "stateMutability": "nonpayable",
      "type": "function"
    },
    {
      "inputs": [
        {
          "internalType": "address",
          "name": "user",
          "type": "address"
        }
      ],
      "name": "getSessionUserInterest",
      "outputs": [
        {
          "internalType": "uint256",
          "name": "interestEarned",
          "type": "uint256"
        }
      ],
      "stateMutability": "view",
      "type": "function"
    },
    {
      "inputs": [
        {
          "internalType": "address",
          "name": "user",
          "type": "address"
        }
      ],
      "name": "getUserCookieBalance",
      "outputs": [
        {
          "internalType": "uint256",
          "name": "cookieBalance",
          "type": "uint256"
        }
      ],
      "stateMutability": "view",
      "type": "function"
    },
    {
      "inputs": [
        {
          "internalType": "address",
          "name": "user",
          "type": "address"
        }
      ],
      "name": "getUserInterest",
      "outputs": [
        {
          "internalType": "uint256",
          "name": "interestEarned",
          "type": "uint256"
        }
      ],
      "stateMutability": "view",
      "type": "function"
    },
    {
      "inputs": [
        {
          "internalType": "address",
          "name": "user",
          "type": "address"
        }
      ],
      "name": "giveUserCaptcha",
      "outputs": [],
      "stateMutability": "nonpayable",
      "type": "function"
    },
    {
      "inputs": [
        {
          "internalType": "uint32",
          "name": "_origin",
          "type": "uint32"
        },
        {
          "internalType": "bytes32",
          "name": "_sender",
          "type": "bytes32"
        },
        {
          "internalType": "bytes",
          "name": "_message",
          "type": "bytes"
        }
      ],
      "name": "handle",
      "outputs": [],
      "stateMutability": "nonpayable",
      "type": "function"
    },
    {
      "inputs": [
        {
          "internalType": "uint256",
          "name": "",
          "type": "uint256"
        }
      ],
      "name": "idToUpgrade",
      "outputs": [
        {
          "internalType": "uint256",
          "name": "cost",
          "type": "uint256"
        },
        {
          "internalType": "uint256",
          "name": "cookieRateBooster",
          "type": "uint256"
        },
        {
          "internalType": "uint256",
          "name": "clickModiferBooster",
          "type": "uint256"
        }
      ],
      "stateMutability": "view",
      "type": "function"
    },
    {
      "inputs": [
        {
          "internalType": "address",
          "name": "",
          "type": "address"
        },
        {
          "internalType": "uint256",
          "name": "",
          "type": "uint256"
        }
      ],
      "name": "idUserToNum",
      "outputs": [
        {
          "internalType": "uint256",
          "name": "",
          "type": "uint256"
        }
      ],
      "stateMutability": "view",
      "type": "function"
    },
    {
      "inputs": [],
      "name": "interchainGasPaymaster",
      "outputs": [
        {
          "internalType": "contract IInterchainGasPaymaster",
          "name": "",
          "type": "address"
        }
      ],
      "stateMutability": "view",
      "type": "function"
    },
    {
      "inputs": [],
      "name": "interchainSecurityModule",
      "outputs": [
        {
          "internalType": "address",
          "name": "",
          "type": "address"
        }
      ],
      "stateMutability": "pure",
      "type": "function"
    },
    {
      "inputs": [
        {
          "internalType": "address",
          "name": "",
          "type": "address"
        }
      ],
      "name": "mostRecentUserSession",
      "outputs": [
        {
          "internalType": "uint256",
          "name": "expiraryDate",
          "type": "uint256"
        },
        {
          "internalType": "bool",
          "name": "sessionActive",
          "type": "bool"
        },
        {
          "internalType": "bytes32",
          "name": "sessionHash",
          "type": "bytes32"
        },
        {
          "components": [
            {
              "internalType": "uint256",
              "name": "totalClicks",
              "type": "uint256"
            },
            {
              "internalType": "uint256",
              "name": "totalSpent",
              "type": "uint256"
            },
            {
              "internalType": "uint256",
              "name": "cookiePerSecond",
              "type": "uint256"
            },
            {
              "internalType": "uint256",
              "name": "interestLastComputed",
              "type": "uint256"
            },
            {
              "internalType": "uint256",
              "name": "clickModifier",
              "type": "uint256"
            }
          ],
          "internalType": "struct CookieClicker.cookieGame",
          "name": "sessionGame",
          "type": "tuple"
        },
        {
          "internalType": "uint256",
          "name": "userInterest",
          "type": "uint256"
        }
      ],
      "stateMutability": "view",
      "type": "function"
    },
    {
      "inputs": [],
      "name": "numRes",
      "outputs": [
        {
          "internalType": "uint256",
          "name": "",
          "type": "uint256"
        }
      ],
      "stateMutability": "view",
      "type": "function"
    },
    {
      "inputs": [
        {
          "internalType": "uint256",
          "name": "upgradeID",
          "type": "uint256"
        }
      ],
      "name": "purchaseUpgrade",
      "outputs": [],
      "stateMutability": "nonpayable",
      "type": "function"
    },
    {
      "inputs": [
        {
          "internalType": "address",
          "name": "user",
          "type": "address"
        },
        {
          "internalType": "uint256",
          "name": "upgradeID",
          "type": "uint256"
        }
      ],
      "name": "purchaseUpgradeForUser",
      "outputs": [],
      "stateMutability": "nonpayable",
      "type": "function"
    },
    {
      "inputs": [],
      "name": "queryRouter",
      "outputs": [
        {
          "internalType": "contract IInterchainQueryRouter",
          "name": "",
          "type": "address"
        }
      ],
      "stateMutability": "view",
      "type": "function"
    },
    {
      "inputs": [],
      "name": "returnedNum",
      "outputs": [
        {
          "internalType": "uint256",
          "name": "",
          "type": "uint256"
        }
      ],
      "stateMutability": "view",
      "type": "function"
    },
    {
      "inputs": [
        {
          "internalType": "address",
          "name": "user",
          "type": "address"
        }
      ],
      "name": "simulateClick",
      "outputs": [
        {
          "internalType": "uint256",
          "name": "clickAmount",
          "type": "uint256"
        }
      ],
      "stateMutability": "view",
      "type": "function"
    },
    {
      "inputs": [
        {
          "internalType": "bytes32",
          "name": "createdHash",
          "type": "bytes32"
        },
        {
          "internalType": "uint256",
          "name": "sessionLength",
          "type": "uint256"
        }
      ],
      "name": "startSession",
      "outputs": [],
      "stateMutability": "nonpayable",
      "type": "function"
    },
    {
      "inputs": [
        {
          "internalType": "uint32",
          "name": "_destinationDomain",
          "type": "uint32"
        },
        {
          "internalType": "address",
          "name": "captchaContract",
          "type": "address"
        },
        {
          "internalType": "uint256",
          "name": "gasAmount",
          "type": "uint256"
        },
        {
          "internalType": "bytes",
          "name": "message",
          "type": "bytes"
        },
        {
          "internalType": "address",
          "name": "user",
          "type": "address"
        }
      ],
      "name": "submitCaptcha",
      "outputs": [],
      "stateMutability": "payable",
      "type": "function"
    },
    {
      "inputs": [],
      "name": "timeSpent",
      "outputs": [
        {
          "internalType": "uint256",
          "name": "",
          "type": "uint256"
        }
      ],
      "stateMutability": "view",
      "type": "function"
    },
    {
      "inputs": [],
      "name": "user",
      "outputs": [
        {
          "internalType": "address",
          "name": "",
          "type": "address"
        }
      ],
      "stateMutability": "view",
      "type": "function"
    },
    {
      "inputs": [
        {
          "internalType": "address",
          "name": "",
          "type": "address"
        }
      ],
      "name": "userCaptchaInfo",
      "outputs": [
        {
          "internalType": "bool",
          "name": "finished",
          "type": "bool"
        },
        {
          "internalType": "uint256",
          "name": "captchaStart",
          "type": "uint256"
        },
        {
          "internalType": "uint256",
          "name": "captchEnd",
          "type": "uint256"
        }
      ],
      "stateMutability": "view",
      "type": "function"
    },
    {
      "inputs": [
        {
          "internalType": "address",
          "name": "",
          "type": "address"
        }
      ],
      "name": "userCookie",
      "outputs": [
        {
          "internalType": "uint256",
          "name": "totalClicks",
          "type": "uint256"
        },
        {
          "internalType": "uint256",
          "name": "totalSpent",
          "type": "uint256"
        },
        {
          "internalType": "uint256",
          "name": "cookiePerSecond",
          "type": "uint256"
        },
        {
          "internalType": "uint256",
          "name": "interestLastComputed",
          "type": "uint256"
        },
        {
          "internalType": "uint256",
          "name": "clickModifier",
          "type": "uint256"
        }
      ],
      "stateMutability": "view",
      "type": "function"
    },
    {
      "inputs": [
        {
          "internalType": "uint256",
          "name": "browserID",
          "type": "uint256"
        },
        {
          "internalType": "address",
          "name": "userAddy",
          "type": "address"
        }
      ],
      "name": "verifySession",
      "outputs": [
        {
          "internalType": "bool",
          "name": "valid",
          "type": "bool"
        }
      ],
      "stateMutability": "view",
      "type": "function"
    },
    {
      "inputs": [],
      "name": "worked",
      "outputs": [
        {
          "internalType": "uint256",
          "name": "",
          "type": "uint256"
        }
      ],
      "stateMutability": "view",
      "type": "function"
    }
  ],
  "transactionHash": "0x5619a2ed8669f01e3cc7b18aa38654794425ec589b14e464b671af467359182b",
  "args": [
    "0x89A35bc404a44c1493223079cD05a0d020076b06",
    "0x4266D8Dd66D8Eb3934c8942968d1e54214D072d3",
    "0xFc930571619B41A71a25b090eF1a9033ce93d3A8"
  ],
  "numDeployments": 21,
  "solcInputHash": "7275461c29acec8166cdafbd2950e6ba",
  "bytecode": "0x6101006040523480156200001257600080fd5b50604051620019dd380380620019dd833981016040819052620000359162000191565b336080526040805160608082018352600a808352600160208085018281526000868801818152848252600280855297517fe90b7bceb6e7df5418fb78d8ee546e97c83a08bbccc01a0644d599ccd2a7c2e05591517fe90b7bceb6e7df5418fb78d8ee546e97c83a08bbccc01a0644d599ccd2a7c2e15590517fe90b7bceb6e7df5418fb78d8ee546e97c83a08bbccc01a0644d599ccd2a7c2e2558651948501875292845283810183815295840191825291849052929052517f679795a0195a1b76cdebb7c51d74e058aee92919b8c3389af86ef24535e8a28c5590517f679795a0195a1b76cdebb7c51d74e058aee92919b8c3389af86ef24535e8a28d55517f679795a0195a1b76cdebb7c51d74e058aee92919b8c3389af86ef24535e8a28e556001600160a01b0391821660c05291811660a0521660e052620001db565b80516001600160a01b03811681146200018c57600080fd5b919050565b600080600060608486031215620001a757600080fd5b620001b28462000174565b9250620001c26020850162000174565b9150620001d26040850162000174565b90509250925092565b60805160a05160c05160e0516117b36200022a600039600061022f015260006107350152600081816107780152610d1c015260008181610a0a01528181610b31015261114c01526117b36000f3fe6080604052600436106101cd5760003560e01c8063ad815078116100f7578063e237a3fc11610095578063e927740b11610064578063e927740b146106d3578063e97ff4e0146106f3578063ebda2bd814610723578063f04b7e531461075757600080fd5b8063e237a3fc14610610578063e36840dd1461063d578063e55a9ddf1461065d578063e8a8e231146106b357600080fd5b8063d1159051116100d1578063d115905114610542578063de523cf3146105b4578063e0fc5870146105db578063e1b1a214146105fb57600080fd5b8063ad815078146104ec578063bf8853c61461050c578063c258e4ed1461052c57600080fd5b80636e6114001161016f5780638fa5cbc31161013e5780638fa5cbc31461043c57806394d1441c1461045c5780639aac95661461047c5780639d908f0e1461048f57600080fd5b80636e61140014610303578063769edf6a146103e75780637d55923d146104075780637d9b92de1461041c57600080fd5b80634f8632ba116101ab5780634f8632ba1461029557806356d5d475146102b55780635fdba839146102d75780636942a845146102ed57600080fd5b806312a04966146101d257806339bb4ad91461021d5780633fed0a6514610269575b600080fd5b3480156101de57600080fd5b5061020a6101ed3660046113b4565b600360209081526000928352604080842090915290825290205481565b6040519081526020015b60405180910390f35b34801561022957600080fd5b506102517f000000000000000000000000000000000000000000000000000000000000000081565b6040516001600160a01b039091168152602001610214565b34801561027557600080fd5b5061028062066eed81565b60405163ffffffff9091168152602001610214565b3480156102a157600080fd5b50600954610251906001600160a01b031681565b3480156102c157600080fd5b506102d56102d03660046113f4565b61076d565b005b3480156102e357600080fd5b5061020a60055481565b3480156102f957600080fd5b5061020a60085481565b34801561030f57600080fd5b5061038a61031e36600461147b565b6001602081815260009283526040928390208054928101546002820154855160a081018752600384015481526004840154948101949094526005830154958401959095526006820154606084015260078201546080840152600890910154929360ff9091169290919085565b60408051958652931515602080870191909152858501939093528151606080870191909152928201516080808701919091529382015160a08601529181015160c0850152919091015160e083015261010082015261012001610214565b3480156103f357600080fd5b5061020a610402366004611498565b610933565b34801561041357600080fd5b506102d5610981565b34801561042857600080fd5b506102d561043736600461147b565b6109ff565b34801561044857600080fd5b506102d56104573660046114c8565b610a86565b34801561046857600080fd5b506102d56104773660046113b4565b610b26565b6102d561048a366004611519565b610d18565b34801561049b57600080fd5b506104cf6104aa36600461147b565b60046020526000908152604090208054600182015460029092015460ff909116919083565b604080519315158452602084019290925290820152606001610214565b3480156104f857600080fd5b5061020a61050736600461147b565b610de9565b34801561051857600080fd5b5061020a61052736600461147b565b610e41565b34801561053857600080fd5b5061020a60075481565b34801561054e57600080fd5b5061058c61055d36600461147b565b600060208190529081526040902080546001820154600283015460038401546004909401549293919290919085565b604080519586526020860194909452928401919091526060830152608082015260a001610214565b3480156105c057600080fd5b50735fe9b2cacd42593408a49d97aa061a1666c595e9610251565b3480156105e757600080fd5b506102d56105f6366004611608565b610ec5565b34801561060757600080fd5b506102d5610ff4565b34801561061c57600080fd5b506102d533600090815260016020819052604090912001805460ff19169055565b34801561064957600080fd5b5061020a61065836600461147b565b611087565b34801561066957600080fd5b50610698610678366004611608565b600260208190526000918252604090912080546001820154919092015483565b60408051938452602084019290925290820152606001610214565b3480156106bf57600080fd5b5061020a6106ce36600461147b565b61110a565b3480156106df57600080fd5b506102d56106ee366004611498565b611141565b3480156106ff57600080fd5b5061071361070e366004611498565b611315565b6040519015158152602001610214565b34801561072f57600080fd5b506102517f000000000000000000000000000000000000000000000000000000000000000081565b34801561076357600080fd5b5061020a60065481565b336001600160a01b037f000000000000000000000000000000000000000000000000000000000000000016146107a257600080fd5b63ffffffff841662066eed146107b757600080fd5b6179ed6007556107c981830183611498565b600980547fffffffffffffffffffffffff0000000000000000000000000000000000000000166001600160a01b0392909216919091179055600881905560020361088c57610141600655600980546001600160a01b0390811660009081526004602090815260408083204260029091015584548416835291829020805460ff1916600190811790915593548251931683528201929092527fcfb2f0fe4da34950954cf34f30e705bc75484a15c7fed467058e8e9e3d05f5b0910160405180910390a15b60085460010361092d57607b6006556009546001600160a01b031660009081526004602052604081206002018054600192906108c9908490611650565b9091555050600980546001600160a01b039081166000908152600460209081526040808320805460ff1916905593548451931683528201527fcfb2f0fe4da34950954cf34f30e705bc75484a15c7fed467058e8e9e3d05f5b0910160405180910390a15b50505050565b6000828260405160200161096392919091825260601b6bffffffffffffffffffffffff1916602082015260340190565b60405160208183030381529060405280519060200120905092915050565b3360008181526020819052604081206003015490036109ba576001600160a01b0381166000908152602081905260409020426003909101555b336000908152602081905260409020600401546109d8906001611650565b33600090815260208190526040812080549091906109f7908490611650565b909155505050565b336001600160a01b037f00000000000000000000000000000000000000000000000000000000000000001614610a3457600080fd5b6040805160608101825260008082524260208084019182528385018381526001600160a01b03969096168352600490529290209051815460ff1916901515178155905160018201559051600290910155565b336000818152602081905260408120600301549003610abf576001600160a01b0381166000908152602081905260409020426003909101555b336000908152600160205260409020600201839055610ade8242611650565b3360009081526001602081815260408084209485558382529092206002810154600585015560040154918190526007830191909155908101805460ff19169091179055505050565b336001600160a01b037f00000000000000000000000000000000000000000000000000000000000000001614610b5b57600080fd5b3360009081526003602090815260408083208484529091528120805491610b8183611663565b9091555050600081815260026020526040902054610bff576040517f08c379a000000000000000000000000000000000000000000000000000000000815260206004820152600b60248201527f4e6f74205265616c204944000000000000000000000000000000000000000000604482015260640160405180910390fd5b336000908152600360209081526040808320848452825280832054600290925290912054610c2d919061169b565b6001600160a01b03831660009081526001602052604081206004018054909190610c58908490611650565b90915550610c67905082610de9565b6001600160a01b03831660008181526001602081815260408084206008810196909655868452600282528320820154938352526005909201805491929091610cb0908490611650565b90915550506000818152600260208181526040808420909201546001600160a01b03861684526001909152908220600701805491929091610cf2908490611650565b9091555050506001600160a01b0316600090815260208190526040902042600390910155565b60007f00000000000000000000000000000000000000000000000000000000000000006001600160a01b031663fa31de0162066eed610d5d886001600160a01b031690565b8686604051602001610d709291906116f8565b6040516020818303038152906040526040518463ffffffff1660e01b8152600401610d9d93929190611723565b6020604051808303816000875af1158015610dbc573d6000803e3d6000fd5b505050506040513d601f19601f82011682018060405250810190610de09190611751565b50505050505050565b6001600160a01b0381166000908152602081905260408120600301548190610e11904261176a565b6001600160a01b038416600090815260016020526040902060050154909150610e3a908261169b565b9392505050565b6001600160a01b0381166000908152602081905260408120600301548190610e69904261176a565b6001600160a01b038416600090815260208190526040902060020154909150610e92908261169b565b6001600160a01b0384166000908152600160208190526040909120015490925060ff1615610ebf57600091505b50919050565b3360009081526003602090815260408083208484529091528120805491610eeb83611663565b91905055506000610efb33611087565b33600090815260208181526040808320426003909101558583526002909152902054909150811015610f2c57600080fd5b336000908152600360209081526040808320858452825280832054600290925290912054610f5a919061169b565b3360009081526020819052604081206001018054909190610f7c908490611650565b9091555050600082815260026020818152604080842060010154338552918490528320909101805491929091610fb3908490611650565b909155505060008281526002602081815260408084209092015433845290839052908220600401805491929091610feb908490611650565b90915550505050565b33600081815260208190526040812060030154900361102d576001600160a01b0381166000908152602081905260409020426003909101555b506040805160a0810182526000808252602080830182815283850183815242606086019081526080860185815233865293859052959093209351845551600184015590516002830155915160038201559051600490910155565b6001600160a01b038116600090815260208181526040808320815160a0810183528154815260018201549381019390935260028101549183019190915260038101546060830152600401546080820152816110e184610e41565b905080826020015183600001516110f8919061176a565b6111029190611650565b949350505050565b6001600160a01b038116600090815260016020819052604082206007015461113191611650565b61113b9082611650565b92915050565b336001600160a01b037f0000000000000000000000000000000000000000000000000000000000000000161461117657600080fd5b6001600160a01b038116600090815260016020526040902054819042111561119d57600080fd5b6001600160a01b0381166000908152600160208190526040909120015460ff166111c657600080fd5b6111d08383611315565b6111d957600080fd5b6001600160a01b03821660009081526001602090815260408083206003015491839052822080549192909161120f908490611650565b90915550506001600160a01b03821660009081526001602052604090206004810154600890910154818161124286611087565b61124c9190611650565b101561125757600080fd5b6001600160a01b03841660009081526020819052604081206001018054849290611282908490611650565b9091555050506001600160a01b039092166000908152600160208181526040808420600781018054868552928620600481810194909455600583018054600280840191909155848801805460ff1990811682554260039586015598909752888555865490971690955594820186905593810185905590810184905590839055600681018390559082905560080155505050565b6000828260405160200161134592919091825260601b6bffffffffffffffffffffffff1916602082015260340190565b60408051601f1981840301815291815281516020928301206001600160a01b0385166000908152600190935291206002015414611383576000610e3a565b60019392505050565b6001600160a01b03811681146113a157600080fd5b50565b80356113af8161138c565b919050565b600080604083850312156113c757600080fd5b82356113d28161138c565b946020939093013593505050565b803563ffffffff811681146113af57600080fd5b6000806000806060858703121561140a57600080fd5b611413856113e0565b935060208501359250604085013567ffffffffffffffff8082111561143757600080fd5b818701915087601f83011261144b57600080fd5b81358181111561145a57600080fd5b88602082850101111561146c57600080fd5b95989497505060200194505050565b60006020828403121561148d57600080fd5b8135610e3a8161138c565b600080604083850312156114ab57600080fd5b8235915060208301356114bd8161138c565b809150509250929050565b600080604083850312156114db57600080fd5b50508035926020909101359150565b7f4e487b7100000000000000000000000000000000000000000000000000000000600052604160045260246000fd5b600080600080600060a0868803121561153157600080fd5b61153a866113e0565b9450602086013561154a8161138c565b935060408601359250606086013567ffffffffffffffff8082111561156e57600080fd5b818801915088601f83011261158257600080fd5b813581811115611594576115946114ea565b604051601f8201601f19908116603f011681019083821181831017156115bc576115bc6114ea565b816040528281528b60208487010111156115d557600080fd5b8260208601602083013760006020848301015280965050505050506115fc608087016113a4565b90509295509295909350565b60006020828403121561161a57600080fd5b5035919050565b7f4e487b7100000000000000000000000000000000000000000000000000000000600052601160045260246000fd5b8082018082111561113b5761113b611621565b60007fffffffffffffffffffffffffffffffffffffffffffffffffffffffffffffffff820361169457611694611621565b5060010190565b808202811582820484141761113b5761113b611621565b6000815180845260005b818110156116d8576020818501810151868301820152016116bc565b506000602082860101526020601f19601f83011685010191505092915050565b60408152600061170b60408301856116b2565b90506001600160a01b03831660208301529392505050565b63ffffffff8416815282602082015260606040820152600061174860608301846116b2565b95945050505050565b60006020828403121561176357600080fd5b5051919050565b8181038181111561113b5761113b61162156fea2646970667358221220f737b98fa3c2ab939f58b16d12c5e9fb4084bd3be7ea815f11d511f51a97fea864736f6c63430008120033",
  "devdoc": {
    "kind": "dev",
    "methods": {},
    "version": 1
  },
  "userdoc": {
    "kind": "user",
    "methods": {},
    "version": 1
  },
  "storageLayout": {
    "storage": [
      {
        "astId": 145,
        "contract": "contracts/CookieClicker.sol:CookieClicker",
        "label": "userCookie",
        "offset": 0,
        "slot": "0",
        "type": "t_mapping(t_address,t_struct(cookieGame)172_storage)"
      },
      {
        "astId": 150,
        "contract": "contracts/CookieClicker.sol:CookieClicker",
        "label": "mostRecentUserSession",
        "offset": 0,
        "slot": "1",
        "type": "t_mapping(t_address,t_struct(GameSession)184_storage)"
      },
      {
        "astId": 155,
        "contract": "contracts/CookieClicker.sol:CookieClicker",
        "label": "idToUpgrade",
        "offset": 0,
        "slot": "2",
        "type": "t_mapping(t_uint256,t_struct(Upgrade)191_storage)"
      },
      {
        "astId": 161,
        "contract": "contracts/CookieClicker.sol:CookieClicker",
        "label": "idUserToNum",
        "offset": 0,
        "slot": "3",
        "type": "t_mapping(t_address,t_mapping(t_uint256,t_uint256))"
      },
      {
        "astId": 258,
        "contract": "contracts/CookieClicker.sol:CookieClicker",
        "label": "userCaptchaInfo",
        "offset": 0,
        "slot": "4",
        "type": "t_mapping(t_address,t_struct(userCaptchaInformation)286_storage)"
      },
      {
        "astId": 260,
        "contract": "contracts/CookieClicker.sol:CookieClicker",
        "label": "timeSpent",
        "offset": 0,
        "slot": "5",
        "type": "t_uint256"
      },
      {
        "astId": 317,
        "contract": "contracts/CookieClicker.sol:CookieClicker",
        "label": "returnedNum",
        "offset": 0,
        "slot": "6",
        "type": "t_uint256"
      },
      {
        "astId": 319,
        "contract": "contracts/CookieClicker.sol:CookieClicker",
        "label": "worked",
        "offset": 0,
        "slot": "7",
        "type": "t_uint256"
      },
      {
        "astId": 321,
        "contract": "contracts/CookieClicker.sol:CookieClicker",
        "label": "numRes",
        "offset": 0,
        "slot": "8",
        "type": "t_uint256"
      },
      {
        "astId": 323,
        "contract": "contracts/CookieClicker.sol:CookieClicker",
        "label": "user",
        "offset": 0,
        "slot": "9",
        "type": "t_address"
      }
    ],
    "types": {
      "t_address": {
        "encoding": "inplace",
        "label": "address",
        "numberOfBytes": "20"
      },
      "t_bool": {
        "encoding": "inplace",
        "label": "bool",
        "numberOfBytes": "1"
      },
      "t_bytes32": {
        "encoding": "inplace",
        "label": "bytes32",
        "numberOfBytes": "32"
      },
      "t_mapping(t_address,t_mapping(t_uint256,t_uint256))": {
        "encoding": "mapping",
        "key": "t_address",
        "label": "mapping(address => mapping(uint256 => uint256))",
        "numberOfBytes": "32",
        "value": "t_mapping(t_uint256,t_uint256)"
      },
      "t_mapping(t_address,t_struct(GameSession)184_storage)": {
        "encoding": "mapping",
        "key": "t_address",
        "label": "mapping(address => struct CookieClicker.GameSession)",
        "numberOfBytes": "32",
        "value": "t_struct(GameSession)184_storage"
      },
      "t_mapping(t_address,t_struct(cookieGame)172_storage)": {
        "encoding": "mapping",
        "key": "t_address",
        "label": "mapping(address => struct CookieClicker.cookieGame)",
        "numberOfBytes": "32",
        "value": "t_struct(cookieGame)172_storage"
      },
      "t_mapping(t_address,t_struct(userCaptchaInformation)286_storage)": {
        "encoding": "mapping",
        "key": "t_address",
        "label": "mapping(address => struct CookieClicker.userCaptchaInformation)",
        "numberOfBytes": "32",
        "value": "t_struct(userCaptchaInformation)286_storage"
      },
      "t_mapping(t_uint256,t_struct(Upgrade)191_storage)": {
        "encoding": "mapping",
        "key": "t_uint256",
        "label": "mapping(uint256 => struct CookieClicker.Upgrade)",
        "numberOfBytes": "32",
        "value": "t_struct(Upgrade)191_storage"
      },
      "t_mapping(t_uint256,t_uint256)": {
        "encoding": "mapping",
        "key": "t_uint256",
        "label": "mapping(uint256 => uint256)",
        "numberOfBytes": "32",
        "value": "t_uint256"
      },
      "t_struct(GameSession)184_storage": {
        "encoding": "inplace",
        "label": "struct CookieClicker.GameSession",
        "members": [
          {
            "astId": 174,
            "contract": "contracts/CookieClicker.sol:CookieClicker",
            "label": "expiraryDate",
            "offset": 0,
            "slot": "0",
            "type": "t_uint256"
          },
          {
            "astId": 176,
            "contract": "contracts/CookieClicker.sol:CookieClicker",
            "label": "sessionActive",
            "offset": 0,
            "slot": "1",
            "type": "t_bool"
          },
          {
            "astId": 178,
            "contract": "contracts/CookieClicker.sol:CookieClicker",
            "label": "sessionHash",
            "offset": 0,
            "slot": "2",
            "type": "t_bytes32"
          },
          {
            "astId": 181,
            "contract": "contracts/CookieClicker.sol:CookieClicker",
            "label": "sessionGame",
            "offset": 0,
            "slot": "3",
            "type": "t_struct(cookieGame)172_storage"
          },
          {
            "astId": 183,
            "contract": "contracts/CookieClicker.sol:CookieClicker",
            "label": "userInterest",
            "offset": 0,
            "slot": "8",
            "type": "t_uint256"
          }
        ],
        "numberOfBytes": "288"
      },
      "t_struct(Upgrade)191_storage": {
        "encoding": "inplace",
        "label": "struct CookieClicker.Upgrade",
        "members": [
          {
            "astId": 186,
            "contract": "contracts/CookieClicker.sol:CookieClicker",
            "label": "cost",
            "offset": 0,
            "slot": "0",
            "type": "t_uint256"
          },
          {
            "astId": 188,
            "contract": "contracts/CookieClicker.sol:CookieClicker",
            "label": "cookieRateBooster",
            "offset": 0,
            "slot": "1",
            "type": "t_uint256"
          },
          {
            "astId": 190,
            "contract": "contracts/CookieClicker.sol:CookieClicker",
            "label": "clickModiferBooster",
            "offset": 0,
            "slot": "2",
            "type": "t_uint256"
          }
        ],
        "numberOfBytes": "96"
      },
      "t_struct(cookieGame)172_storage": {
        "encoding": "inplace",
        "label": "struct CookieClicker.cookieGame",
        "members": [
          {
            "astId": 163,
            "contract": "contracts/CookieClicker.sol:CookieClicker",
            "label": "totalClicks",
            "offset": 0,
            "slot": "0",
            "type": "t_uint256"
          },
          {
            "astId": 165,
            "contract": "contracts/CookieClicker.sol:CookieClicker",
            "label": "totalSpent",
            "offset": 0,
            "slot": "1",
            "type": "t_uint256"
          },
          {
            "astId": 167,
            "contract": "contracts/CookieClicker.sol:CookieClicker",
            "label": "cookiePerSecond",
            "offset": 0,
            "slot": "2",
            "type": "t_uint256"
          },
          {
            "astId": 169,
            "contract": "contracts/CookieClicker.sol:CookieClicker",
            "label": "interestLastComputed",
            "offset": 0,
            "slot": "3",
            "type": "t_uint256"
          },
          {
            "astId": 171,
            "contract": "contracts/CookieClicker.sol:CookieClicker",
            "label": "clickModifier",
            "offset": 0,
            "slot": "4",
            "type": "t_uint256"
          }
        ],
        "numberOfBytes": "160"
      },
      "t_struct(userCaptchaInformation)286_storage": {
        "encoding": "inplace",
        "label": "struct CookieClicker.userCaptchaInformation",
        "members": [
          {
            "astId": 281,
            "contract": "contracts/CookieClicker.sol:CookieClicker",
            "label": "finished",
            "offset": 0,
            "slot": "0",
            "type": "t_bool"
          },
          {
            "astId": 283,
            "contract": "contracts/CookieClicker.sol:CookieClicker",
            "label": "captchaStart",
            "offset": 0,
            "slot": "1",
            "type": "t_uint256"
          },
          {
            "astId": 285,
            "contract": "contracts/CookieClicker.sol:CookieClicker",
            "label": "captchEnd",
            "offset": 0,
            "slot": "2",
            "type": "t_uint256"
          }
        ],
        "numberOfBytes": "96"
      },
      "t_uint256": {
        "encoding": "inplace",
        "label": "uint256",
        "numberOfBytes": "32"
      }
    }
  }
}