{
  "address": "0xbaE442a9249f0A6fc45C907e616094cec1D42421",
  "abi": [
    {
      "inputs": [
        {
          "internalType": "address",
          "name": "novaMailboxAddy",
          "type": "address"
        },
        {
          "internalType": "address",
          "name": "novaGasAddy",
          "type": "address"
        }
      ],
      "stateMutability": "nonpayable",
      "type": "constructor"
    },
    {
      "anonymous": false,
      "inputs": [],
      "name": "Handled",
      "type": "event"
    },
    {
      "anonymous": false,
      "inputs": [
        {
          "indexed": true,
          "internalType": "address",
          "name": "user",
          "type": "address"
        }
      ],
      "name": "captchaNeededForUser",
      "type": "event"
    },
    {
      "inputs": [],
      "name": "arbGoerliDomainID",
      "outputs": [
        {
          "internalType": "uint32",
          "name": "",
          "type": "uint32"
        }
      ],
      "stateMutability": "view",
      "type": "function"
    },
    {
      "inputs": [],
      "name": "click",
      "outputs": [],
      "stateMutability": "nonpayable",
      "type": "function"
    },
    {
      "inputs": [
        {
          "internalType": "uint256",
          "name": "browserID",
          "type": "uint256"
        },
        {
          "internalType": "address",
          "name": "userAddress",
          "type": "address"
        }
      ],
      "name": "completeSession",
      "outputs": [],
      "stateMutability": "nonpayable",
      "type": "function"
    },
    {
      "inputs": [],
      "name": "createCookie",
      "outputs": [],
      "stateMutability": "nonpayable",
      "type": "function"
    },
    {
      "inputs": [
        {
          "internalType": "uint256",
          "name": "browserID",
          "type": "uint256"
        },
        {
          "internalType": "address",
          "name": "userAddy",
          "type": "address"
        }
      ],
      "name": "createHash",
      "outputs": [
        {
          "internalType": "bytes32",
          "name": "newHash",
          "type": "bytes32"
        }
      ],
      "stateMutability": "pure",
      "type": "function"
    },
    {
      "inputs": [],
      "name": "endSession",
      "outputs": [],
      "stateMutability": "nonpayable",
      "type": "function"
    },
    {
      "inputs": [
        {
          "internalType": "uint32",
          "name": "_destinationDomain",
          "type": "uint32"
        },
        {
          "internalType": "uint256",
          "name": "_gasAmount",
          "type": "uint256"
        }
      ],
      "name": "getGasQuote",
      "outputs": [
        {
          "internalType": "uint256",
          "name": "quotedPayment",
          "type": "uint256"
        }
      ],
      "stateMutability": "view",
      "type": "function"
    },
    {
      "inputs": [
        {
          "internalType": "address",
          "name": "user",
          "type": "address"
        }
      ],
      "name": "getSessionUserInterest",
      "outputs": [
        {
          "internalType": "uint256",
          "name": "interestEarned",
          "type": "uint256"
        }
      ],
      "stateMutability": "view",
      "type": "function"
    },
    {
      "inputs": [
        {
          "internalType": "address",
          "name": "user",
          "type": "address"
        }
      ],
      "name": "getUserCookieBalance",
      "outputs": [
        {
          "internalType": "uint256",
          "name": "cookieBalance",
          "type": "uint256"
        }
      ],
      "stateMutability": "view",
      "type": "function"
    },
    {
      "inputs": [
        {
          "internalType": "address",
          "name": "user",
          "type": "address"
        }
      ],
      "name": "getUserInterest",
      "outputs": [
        {
          "internalType": "uint256",
          "name": "interestEarned",
          "type": "uint256"
        }
      ],
      "stateMutability": "view",
      "type": "function"
    },
    {
      "inputs": [
        {
          "internalType": "address",
          "name": "user",
          "type": "address"
        }
      ],
      "name": "giveUserCaptcha",
      "outputs": [],
      "stateMutability": "nonpayable",
      "type": "function"
    },
    {
      "inputs": [
        {
          "internalType": "uint32",
          "name": "_origin",
          "type": "uint32"
        },
        {
          "internalType": "bytes32",
          "name": "_sender",
          "type": "bytes32"
        },
        {
          "internalType": "bytes",
          "name": "_message",
          "type": "bytes"
        }
      ],
      "name": "handle",
      "outputs": [],
      "stateMutability": "nonpayable",
      "type": "function"
    },
    {
      "inputs": [
        {
          "internalType": "uint256",
          "name": "",
          "type": "uint256"
        }
      ],
      "name": "idToUpgrade",
      "outputs": [
        {
          "internalType": "uint256",
          "name": "cost",
          "type": "uint256"
        },
        {
          "internalType": "uint256",
          "name": "cookieRateBooster",
          "type": "uint256"
        },
        {
          "internalType": "uint256",
          "name": "clickModiferBooster",
          "type": "uint256"
        }
      ],
      "stateMutability": "view",
      "type": "function"
    },
    {
      "inputs": [
        {
          "internalType": "address",
          "name": "",
          "type": "address"
        },
        {
          "internalType": "uint256",
          "name": "",
          "type": "uint256"
        }
      ],
      "name": "idUserToNum",
      "outputs": [
        {
          "internalType": "uint256",
          "name": "",
          "type": "uint256"
        }
      ],
      "stateMutability": "view",
      "type": "function"
    },
    {
      "inputs": [
        {
          "internalType": "address",
          "name": "",
          "type": "address"
        }
      ],
      "name": "mostRecentUserSession",
      "outputs": [
        {
          "internalType": "uint256",
          "name": "expiraryDate",
          "type": "uint256"
        },
        {
          "internalType": "bool",
          "name": "sessionActive",
          "type": "bool"
        },
        {
          "internalType": "bytes32",
          "name": "sessionHash",
          "type": "bytes32"
        },
        {
          "components": [
            {
              "internalType": "uint256",
              "name": "totalClicks",
              "type": "uint256"
            },
            {
              "internalType": "uint256",
              "name": "totalSpent",
              "type": "uint256"
            },
            {
              "internalType": "uint256",
              "name": "cookiePerSecond",
              "type": "uint256"
            },
            {
              "internalType": "uint256",
              "name": "interestLastComputed",
              "type": "uint256"
            },
            {
              "internalType": "uint256",
              "name": "clickModifier",
              "type": "uint256"
            }
          ],
          "internalType": "struct CookieClicker.cookieGame",
          "name": "sessionGame",
          "type": "tuple"
        },
        {
          "internalType": "uint256",
          "name": "userInterest",
          "type": "uint256"
        }
      ],
      "stateMutability": "view",
      "type": "function"
    },
    {
      "inputs": [
        {
          "internalType": "uint256",
          "name": "upgradeID",
          "type": "uint256"
        }
      ],
      "name": "purchaseUpgrade",
      "outputs": [],
      "stateMutability": "nonpayable",
      "type": "function"
    },
    {
      "inputs": [
        {
          "internalType": "address",
          "name": "user",
          "type": "address"
        },
        {
          "internalType": "uint256",
          "name": "upgradeID",
          "type": "uint256"
        }
      ],
      "name": "purchaseUpgradeForUser",
      "outputs": [],
      "stateMutability": "nonpayable",
      "type": "function"
    },
    {
      "inputs": [],
      "name": "response",
      "outputs": [
        {
          "internalType": "uint256",
          "name": "",
          "type": "uint256"
        }
      ],
      "stateMutability": "view",
      "type": "function"
    },
    {
      "inputs": [
        {
          "internalType": "address",
          "name": "user",
          "type": "address"
        }
      ],
      "name": "simulateClick",
      "outputs": [
        {
          "internalType": "uint256",
          "name": "clickAmount",
          "type": "uint256"
        }
      ],
      "stateMutability": "view",
      "type": "function"
    },
    {
      "inputs": [
        {
          "internalType": "bytes32",
          "name": "createdHash",
          "type": "bytes32"
        },
        {
          "internalType": "uint256",
          "name": "sessionLength",
          "type": "uint256"
        }
      ],
      "name": "startSession",
      "outputs": [],
      "stateMutability": "nonpayable",
      "type": "function"
    },
    {
      "inputs": [
        {
          "internalType": "bytes",
          "name": "proof",
          "type": "bytes"
        },
        {
          "internalType": "address",
          "name": "captchaContract",
          "type": "address"
        }
      ],
      "name": "submitCaptcha",
      "outputs": [],
      "stateMutability": "payable",
      "type": "function"
    },
    {
      "inputs": [],
      "name": "timeSpent",
      "outputs": [
        {
          "internalType": "uint256",
          "name": "",
          "type": "uint256"
        }
      ],
      "stateMutability": "view",
      "type": "function"
    },
    {
      "inputs": [
        {
          "internalType": "address",
          "name": "",
          "type": "address"
        }
      ],
      "name": "userCookie",
      "outputs": [
        {
          "internalType": "uint256",
          "name": "totalClicks",
          "type": "uint256"
        },
        {
          "internalType": "uint256",
          "name": "totalSpent",
          "type": "uint256"
        },
        {
          "internalType": "uint256",
          "name": "cookiePerSecond",
          "type": "uint256"
        },
        {
          "internalType": "uint256",
          "name": "interestLastComputed",
          "type": "uint256"
        },
        {
          "internalType": "uint256",
          "name": "clickModifier",
          "type": "uint256"
        }
      ],
      "stateMutability": "view",
      "type": "function"
    },
    {
      "inputs": [
        {
          "internalType": "uint256",
          "name": "browserID",
          "type": "uint256"
        },
        {
          "internalType": "address",
          "name": "userAddy",
          "type": "address"
        }
      ],
      "name": "verifySession",
      "outputs": [
        {
          "internalType": "bool",
          "name": "valid",
          "type": "bool"
        }
      ],
      "stateMutability": "view",
      "type": "function"
    }
  ],
  "transactionHash": "0x5e4ee875477a72dfb7c558927d968db10143b6ca10ce4e71b05760179349784e",
  "args": [
    "0xCC737a94FecaeC165AbCf12dED095BB13F037685",
    "0xF90cB82a76492614D07B82a7658917f3aC811Ac1"
  ],
  "numDeployments": 2,
  "solcInputHash": "e919c16a9159e4ea0391ec9bfba6a9c8",
  "bytecode": "0x60e060405234801561001057600080fd5b50604051620017bb380380620017bb83398101604081905261003191610185565b336080526040805160608082018352600a808352600160208085018281526000868801818152848252600280855297517fe90b7bceb6e7df5418fb78d8ee546e97c83a08bbccc01a0644d599ccd2a7c2e05591517fe90b7bceb6e7df5418fb78d8ee546e97c83a08bbccc01a0644d599ccd2a7c2e15590517fe90b7bceb6e7df5418fb78d8ee546e97c83a08bbccc01a0644d599ccd2a7c2e2558651948501875292845283810183815295840191825291849052929052517f679795a0195a1b76cdebb7c51d74e058aee92919b8c3389af86ef24535e8a28c5590517f679795a0195a1b76cdebb7c51d74e058aee92919b8c3389af86ef24535e8a28d55517f679795a0195a1b76cdebb7c51d74e058aee92919b8c3389af86ef24535e8a28e556001600160a01b0391821660a0521660c0526101b8565b80516001600160a01b038116811461018057600080fd5b919050565b6000806040838503121561019857600080fd5b6101a183610169565b91506101af60208401610169565b90509250929050565b60805160a05160c0516115be620001fd600039600081816106390152611196015260006106b70152600081816108da015281816109cb0152610f0e01526115be6000f3fe60806040526004361061018b5760003560e01c806394d1441c116100d6578063e237a3fc1161007f578063e8a8e23111610059578063e8a8e2311461058b578063e927740b146105ab578063e97ff4e0146105cb57600080fd5b8063e237a3fc146104e8578063e36840dd14610515578063e55a9ddf1461053557600080fd5b8063d1159051116100b0578063d115905114610441578063e0fc5870146104b3578063e1b1a214146104d357600080fd5b806394d1441c146103e1578063ad81507814610401578063bf8853c61461042157600080fd5b80636e611400116101385780637d55923d116101125780637d55923d1461038c5780637d9b92de146103a15780638fa5cbc3146103c157600080fd5b80636e61140014610272578063769edf6a146103565780637a7f01a71461037657600080fd5b80633fed0a65116101695780633fed0a651461021057806356d5d4751461023c5780635fdba8391461025c57600080fd5b806312a049661461019057806315381ed8146101db5780632d599670146101fb575b600080fd5b34801561019c57600080fd5b506101c86101ab36600461121d565b600360209081526000928352604080842090915290825290205481565b6040519081526020015b60405180910390f35b3480156101e757600080fd5b506101c86101f636600461125b565b6105fb565b61020e6102093660046112a6565b6106b3565b005b34801561021c57600080fd5b5061022762066eed81565b60405163ffffffff90911681526020016101d2565b34801561024857600080fd5b5061020e610257366004611368565b6107c1565b34801561026857600080fd5b506101c860055481565b34801561027e57600080fd5b506102f961028d3660046113ef565b6001602081815260009283526040928390208054928101546002820154855160a081018752600384015481526004840154948101949094526005830154958401959095526006820154606084015260078201546080840152600890910154929360ff9091169290919085565b60408051958652931515602080870191909152858501939093528151606080870191909152928201516080808701919091529382015160a08601529181015160c0850152919091015160e0830152610100820152610120016101d2565b34801561036257600080fd5b506101c861037136600461140a565b610803565b34801561038257600080fd5b506101c860065481565b34801561039857600080fd5b5061020e610851565b3480156103ad57600080fd5b5061020e6103bc3660046113ef565b6108cf565b3480156103cd57600080fd5b5061020e6103dc36600461142d565b610920565b3480156103ed57600080fd5b5061020e6103fc36600461121d565b6109c0565b34801561040d57600080fd5b506101c861041c3660046113ef565b610bb2565b34801561042d57600080fd5b506101c861043c3660046113ef565b610c03565b34801561044d57600080fd5b5061048b61045c3660046113ef565b600060208190529081526040902080546001820154600283015460038401546004909401549293919290919085565b604080519586526020860194909452928401919091526060830152608082015260a0016101d2565b3480156104bf57600080fd5b5061020e6104ce36600461144f565b610c87565b3480156104df57600080fd5b5061020e610db6565b3480156104f457600080fd5b5061020e33600090815260016020819052604090912001805460ff19169055565b34801561052157600080fd5b506101c86105303660046113ef565b610e49565b34801561054157600080fd5b5061057061055036600461144f565b600260208190526000918252604090912080546001820154919092015483565b604080519384526020840192909252908201526060016101d2565b34801561059757600080fd5b506101c86105a63660046113ef565b610ecc565b3480156105b757600080fd5b5061020e6105c636600461140a565b610f03565b3480156105d757600080fd5b506105eb6105e636600461140a565b6110d7565b60405190151581526020016101d2565b6040517fa692979300000000000000000000000000000000000000000000000000000000815263ffffffff83166004820152602481018290526000907f00000000000000000000000000000000000000000000000000000000000000006001600160a01b03169063a692979390604401602060405180830381865afa158015610688573d6000803e3d6000fd5b505050506040513d601f19601f820116820180604052508101906106ac9190611468565b9392505050565b60007f00000000000000000000000000000000000000000000000000000000000000006001600160a01b031663fa31de0162066eed6106f8856001600160a01b031690565b6040516020016107399060208082526005908201527f48656c6c6f000000000000000000000000000000000000000000000000000000604082015260600190565b6040516020818303038152906040526040518463ffffffff1660e01b815260040161076693929190611481565b6020604051808303816000875af1158015610785573d6000803e3d6000fd5b505050506040513d601f19601f820116820180604052508101906107a99190611468565b90506107bc8162066eed6207a12061114e565b505050565b6040517f4cc4a1630487b2fe690830097547fdad4ac73ff86d3655671911224fd0a7ccc590600090a16107fa6107f782846114e4565b90565b60065550505050565b6000828260405160200161083392919091825260601b6bffffffffffffffffffffffff1916602082015260340190565b60405160208183030381529060405280519060200120905092915050565b33600081815260208190526040812060030154900361088a576001600160a01b0381166000908152602081905260409020426003909101555b336000908152602081905260409020600401546108a8906001611531565b33600090815260208190526040812080549091906108c7908490611531565b909155505050565b336001600160a01b037f0000000000000000000000000000000000000000000000000000000000000000161461090457600080fd5b6001600160a01b03166000908152600460205260409020429055565b336000818152602081905260408120600301549003610959576001600160a01b0381166000908152602081905260409020426003909101555b3360009081526001602052604090206002018390556109788242611531565b3360009081526001602081815260408084209485558382529092206002810154600585015560040154918190526007830191909155908101805460ff19169091179055505050565b336001600160a01b037f000000000000000000000000000000000000000000000000000000000000000016146109f557600080fd5b3360009081526003602090815260408083208484529091528120805491610a1b83611544565b9091555050600081815260026020526040902054610a99576040517f08c379a000000000000000000000000000000000000000000000000000000000815260206004820152600b60248201527f4e6f74205265616c204944000000000000000000000000000000000000000000604482015260640160405180910390fd5b336000908152600360209081526040808320848452825280832054600290925290912054610ac7919061155e565b6001600160a01b03831660009081526001602052604081206004018054909190610af2908490611531565b90915550610b01905082610bb2565b6001600160a01b03831660008181526001602081815260408084206008810196909655868452600282528320820154938352526005909201805491929091610b4a908490611531565b90915550506000818152600260208181526040808420909201546001600160a01b03861684526001909152908220600701805491929091610b8c908490611531565b9091555050506001600160a01b0316600090815260208190526040902042600390910155565b6001600160a01b0381166000908152602081905260408120600301548190610bda9042611575565b6001600160a01b0384166000908152600160205260409020600501549091506106ac908261155e565b6001600160a01b0381166000908152602081905260408120600301548190610c2b9042611575565b6001600160a01b038416600090815260208190526040902060020154909150610c54908261155e565b6001600160a01b0384166000908152600160208190526040909120015490925060ff1615610c8157600091505b50919050565b3360009081526003602090815260408083208484529091528120805491610cad83611544565b91905055506000610cbd33610e49565b33600090815260208181526040808320426003909101558583526002909152902054909150811015610cee57600080fd5b336000908152600360209081526040808320858452825280832054600290925290912054610d1c919061155e565b3360009081526020819052604081206001018054909190610d3e908490611531565b9091555050600082815260026020818152604080842060010154338552918490528320909101805491929091610d75908490611531565b909155505060008281526002602081815260408084209092015433845290839052908220600401805491929091610dad908490611531565b90915550505050565b336000818152602081905260408120600301549003610def576001600160a01b0381166000908152602081905260409020426003909101555b506040805160a0810182526000808252602080830182815283850183815242606086019081526080860185815233865293859052959093209351845551600184015590516002830155915160038201559051600490910155565b6001600160a01b038116600090815260208181526040808320815160a081018352815481526001820154938101939093526002810154918301919091526003810154606083015260040154608082015281610ea384610c03565b90508082602001518360000151610eba9190611575565b610ec49190611531565b949350505050565b6001600160a01b0381166000908152600160208190526040822060070154610ef391611531565b610efd9082611531565b92915050565b336001600160a01b037f00000000000000000000000000000000000000000000000000000000000000001614610f3857600080fd5b6001600160a01b0381166000908152600160205260409020548190421115610f5f57600080fd5b6001600160a01b0381166000908152600160208190526040909120015460ff16610f8857600080fd5b610f9283836110d7565b610f9b57600080fd5b6001600160a01b038216600090815260016020908152604080832060030154918390528220805491929091610fd1908490611531565b90915550506001600160a01b03821660009081526001602052604090206004810154600890910154818161100486610e49565b61100e9190611531565b101561101957600080fd5b6001600160a01b03841660009081526020819052604081206001018054849290611044908490611531565b9091555050506001600160a01b039092166000908152600160208181526040808420600781018054868552928620600481810194909455600583018054600280840191909155848801805460ff1990811682554260039586015598909752888555865490971690955594820186905593810185905590810184905590839055600681018390559082905560080155505050565b6000828260405160200161110792919091825260601b6bffffffffffffffffffffffff1916602082015260340190565b60408051601f1981840301815291815281516020928301206001600160a01b03851660009081526001909352912060020154146111455760006106ac565b60019392505050565b6040517f11bf2c180000000000000000000000000000000000000000000000000000000081526004810184905263ffffffff83166024820152604481018290523360648201527f00000000000000000000000000000000000000000000000000000000000000006001600160a01b0316906311bf2c189034906084016000604051808303818588803b1580156111e357600080fd5b505af11580156111f7573d6000803e3d6000fd5b5050505050505050565b80356001600160a01b038116811461121857600080fd5b919050565b6000806040838503121561123057600080fd5b61123983611201565b946020939093013593505050565b803563ffffffff8116811461121857600080fd5b6000806040838503121561126e57600080fd5b61123983611247565b7f4e487b7100000000000000000000000000000000000000000000000000000000600052604160045260246000fd5b600080604083850312156112b957600080fd5b823567ffffffffffffffff808211156112d157600080fd5b818501915085601f8301126112e557600080fd5b8135818111156112f7576112f7611277565b604051601f8201601f19908116603f0116810190838211818310171561131f5761131f611277565b8160405282815288602084870101111561133857600080fd5b82602086016020830137600060208483010152809650505050505061135f60208401611201565b90509250929050565b6000806000806060858703121561137e57600080fd5b61138785611247565b935060208501359250604085013567ffffffffffffffff808211156113ab57600080fd5b818701915087601f8301126113bf57600080fd5b8135818111156113ce57600080fd5b8860208285010111156113e057600080fd5b95989497505060200194505050565b60006020828403121561140157600080fd5b6106ac82611201565b6000806040838503121561141d57600080fd5b8235915061135f60208401611201565b6000806040838503121561144057600080fd5b50508035926020909101359150565b60006020828403121561146157600080fd5b5035919050565b60006020828403121561147a57600080fd5b5051919050565b63ffffffff8416815260006020848184015260606040840152835180606085015260005b818110156114c1578581018301518582016080015282016114a5565b506000608082860101526080601f19601f83011685010192505050949350505050565b80356020831015610efd57600019602084900360031b1b1692915050565b7f4e487b7100000000000000000000000000000000000000000000000000000000600052601160045260246000fd5b80820180821115610efd57610efd611502565b6000600019820361155757611557611502565b5060010190565b8082028115828204841417610efd57610efd611502565b81810381811115610efd57610efd61150256fea2646970667358221220662eee56564cd1e19441e4eea7257b6fcaf1172bcb00ba146ccfbd9e3717bc0764736f6c63430008120033",
  "devdoc": {
    "kind": "dev",
    "methods": {},
    "version": 1
  },
  "userdoc": {
    "kind": "user",
    "methods": {},
    "version": 1
  },
  "storageLayout": {
    "storage": [
      {
        "astId": 133,
        "contract": "contracts/CookieClicker.sol:CookieClicker",
        "label": "userCookie",
        "offset": 0,
        "slot": "0",
        "type": "t_mapping(t_address,t_struct(cookieGame)160_storage)"
      },
      {
        "astId": 138,
        "contract": "contracts/CookieClicker.sol:CookieClicker",
        "label": "mostRecentUserSession",
        "offset": 0,
        "slot": "1",
        "type": "t_mapping(t_address,t_struct(GameSession)172_storage)"
      },
      {
        "astId": 143,
        "contract": "contracts/CookieClicker.sol:CookieClicker",
        "label": "idToUpgrade",
        "offset": 0,
        "slot": "2",
        "type": "t_mapping(t_uint256,t_struct(Upgrade)179_storage)"
      },
      {
        "astId": 149,
        "contract": "contracts/CookieClicker.sol:CookieClicker",
        "label": "idUserToNum",
        "offset": 0,
        "slot": "3",
        "type": "t_mapping(t_address,t_mapping(t_uint256,t_uint256))"
      },
      {
        "astId": 245,
        "contract": "contracts/CookieClicker.sol:CookieClicker",
        "label": "userCaptchaStart",
        "offset": 0,
        "slot": "4",
        "type": "t_mapping(t_address,t_uint256)"
      },
      {
        "astId": 247,
        "contract": "contracts/CookieClicker.sol:CookieClicker",
        "label": "timeSpent",
        "offset": 0,
        "slot": "5",
        "type": "t_uint256"
      },
      {
        "astId": 384,
        "contract": "contracts/CookieClicker.sol:CookieClicker",
        "label": "response",
        "offset": 0,
        "slot": "6",
        "type": "t_uint256"
      }
    ],
    "types": {
      "t_address": {
        "encoding": "inplace",
        "label": "address",
        "numberOfBytes": "20"
      },
      "t_bool": {
        "encoding": "inplace",
        "label": "bool",
        "numberOfBytes": "1"
      },
      "t_bytes32": {
        "encoding": "inplace",
        "label": "bytes32",
        "numberOfBytes": "32"
      },
      "t_mapping(t_address,t_mapping(t_uint256,t_uint256))": {
        "encoding": "mapping",
        "key": "t_address",
        "label": "mapping(address => mapping(uint256 => uint256))",
        "numberOfBytes": "32",
        "value": "t_mapping(t_uint256,t_uint256)"
      },
      "t_mapping(t_address,t_struct(GameSession)172_storage)": {
        "encoding": "mapping",
        "key": "t_address",
        "label": "mapping(address => struct CookieClicker.GameSession)",
        "numberOfBytes": "32",
        "value": "t_struct(GameSession)172_storage"
      },
      "t_mapping(t_address,t_struct(cookieGame)160_storage)": {
        "encoding": "mapping",
        "key": "t_address",
        "label": "mapping(address => struct CookieClicker.cookieGame)",
        "numberOfBytes": "32",
        "value": "t_struct(cookieGame)160_storage"
      },
      "t_mapping(t_address,t_uint256)": {
        "encoding": "mapping",
        "key": "t_address",
        "label": "mapping(address => uint256)",
        "numberOfBytes": "32",
        "value": "t_uint256"
      },
      "t_mapping(t_uint256,t_struct(Upgrade)179_storage)": {
        "encoding": "mapping",
        "key": "t_uint256",
        "label": "mapping(uint256 => struct CookieClicker.Upgrade)",
        "numberOfBytes": "32",
        "value": "t_struct(Upgrade)179_storage"
      },
      "t_mapping(t_uint256,t_uint256)": {
        "encoding": "mapping",
        "key": "t_uint256",
        "label": "mapping(uint256 => uint256)",
        "numberOfBytes": "32",
        "value": "t_uint256"
      },
      "t_struct(GameSession)172_storage": {
        "encoding": "inplace",
        "label": "struct CookieClicker.GameSession",
        "members": [
          {
            "astId": 162,
            "contract": "contracts/CookieClicker.sol:CookieClicker",
            "label": "expiraryDate",
            "offset": 0,
            "slot": "0",
            "type": "t_uint256"
          },
          {
            "astId": 164,
            "contract": "contracts/CookieClicker.sol:CookieClicker",
            "label": "sessionActive",
            "offset": 0,
            "slot": "1",
            "type": "t_bool"
          },
          {
            "astId": 166,
            "contract": "contracts/CookieClicker.sol:CookieClicker",
            "label": "sessionHash",
            "offset": 0,
            "slot": "2",
            "type": "t_bytes32"
          },
          {
            "astId": 169,
            "contract": "contracts/CookieClicker.sol:CookieClicker",
            "label": "sessionGame",
            "offset": 0,
            "slot": "3",
            "type": "t_struct(cookieGame)160_storage"
          },
          {
            "astId": 171,
            "contract": "contracts/CookieClicker.sol:CookieClicker",
            "label": "userInterest",
            "offset": 0,
            "slot": "8",
            "type": "t_uint256"
          }
        ],
        "numberOfBytes": "288"
      },
      "t_struct(Upgrade)179_storage": {
        "encoding": "inplace",
        "label": "struct CookieClicker.Upgrade",
        "members": [
          {
            "astId": 174,
            "contract": "contracts/CookieClicker.sol:CookieClicker",
            "label": "cost",
            "offset": 0,
            "slot": "0",
            "type": "t_uint256"
          },
          {
            "astId": 176,
            "contract": "contracts/CookieClicker.sol:CookieClicker",
            "label": "cookieRateBooster",
            "offset": 0,
            "slot": "1",
            "type": "t_uint256"
          },
          {
            "astId": 178,
            "contract": "contracts/CookieClicker.sol:CookieClicker",
            "label": "clickModiferBooster",
            "offset": 0,
            "slot": "2",
            "type": "t_uint256"
          }
        ],
        "numberOfBytes": "96"
      },
      "t_struct(cookieGame)160_storage": {
        "encoding": "inplace",
        "label": "struct CookieClicker.cookieGame",
        "members": [
          {
            "astId": 151,
            "contract": "contracts/CookieClicker.sol:CookieClicker",
            "label": "totalClicks",
            "offset": 0,
            "slot": "0",
            "type": "t_uint256"
          },
          {
            "astId": 153,
            "contract": "contracts/CookieClicker.sol:CookieClicker",
            "label": "totalSpent",
            "offset": 0,
            "slot": "1",
            "type": "t_uint256"
          },
          {
            "astId": 155,
            "contract": "contracts/CookieClicker.sol:CookieClicker",
            "label": "cookiePerSecond",
            "offset": 0,
            "slot": "2",
            "type": "t_uint256"
          },
          {
            "astId": 157,
            "contract": "contracts/CookieClicker.sol:CookieClicker",
            "label": "interestLastComputed",
            "offset": 0,
            "slot": "3",
            "type": "t_uint256"
          },
          {
            "astId": 159,
            "contract": "contracts/CookieClicker.sol:CookieClicker",
            "label": "clickModifier",
            "offset": 0,
            "slot": "4",
            "type": "t_uint256"
          }
        ],
        "numberOfBytes": "160"
      },
      "t_uint256": {
        "encoding": "inplace",
        "label": "uint256",
        "numberOfBytes": "32"
      }
    }
  }
}